{
  "contractName": "TestCross",
  "abi": [
    {
      "inputs": [],
      "stateMutability": "nonpayable",
      "type": "constructor"
    },
    {
      "anonymous": false,
      "inputs": [
        {
          "indexed": false,
          "internalType": "bytes",
          "name": "nonce",
          "type": "bytes"
        }
      ],
      "name": "Nonce",
      "type": "event"
    },
    {
      "inputs": [
        {
          "internalType": "uint256",
          "name": "chainid",
          "type": "uint256"
        },
        {
          "internalType": "address",
          "name": "contractAddress",
          "type": "address"
        },
        {
          "internalType": "bytes",
          "name": "data",
          "type": "bytes"
        }
      ],
      "name": "bridgeCall",
      "outputs": [
        {
          "internalType": "bytes",
          "name": "datas",
          "type": "bytes"
        }
      ],
      "stateMutability": "payable",
      "type": "function"
    },
    {
      "inputs": [],
      "name": "myFunction",
      "outputs": [
        {
          "internalType": "bytes",
          "name": "datas",
          "type": "bytes"
        }
      ],
      "stateMutability": "nonpayable",
      "type": "function"
    }
  ],
  "bytecode": "0x608060405234801561001057600080fd5b5061073a806100206000396000f3fe6080604052600436106100295760003560e01c8063133b61e01461002e578063c3780a3a1461005e575b600080fd5b610048600480360381019061004391906104c8565b610089565b60405161005591906105b6565b60405180910390f35b34801561006a57600080fd5b50610073610229565b60405161008091906105b6565b60405180910390f35b606060008484846040516024016100a2939291906105f6565b6040516020818303038152906040527f133b61e0000000000000000000000000000000000000000000000000000000007bffffffffffffffffffffffffffffffffffffffffffffffffffffffff19166020820180517bffffffffffffffffffffffffffffffffffffffffffffffffffffffff8381831617835250505050905060008073a6115196f79e6ee3b7990d3e0aca0c3627c4374373ffffffffffffffffffffffffffffffffffffffff16348460405161015e9190610670565b60006040518083038185875af1925050503d806000811461019b576040519150601f19603f3d011682016040523d82523d6000602084013e6101a0565b606091505b5091509150816101e5576040517f08c379a00000000000000000000000000000000000000000000000000000000081526004016101dc906106e4565b60405180910390fd5b7f81bae41ba86a09ea7599b22cc028c14e8b8b1d8d2b6a122697c41ba91e9898fa8160405161021491906105b6565b60405180910390a18093505050509392505050565b606060006102d162aa36a7735c3159ddd2fe0f9862bc7b7d60c1875fa8f813376040516024016040516020818303038152906040527fa3c8e393000000000000000000000000000000000000000000000000000000007bffffffffffffffffffffffffffffffffffffffffffffffffffffffff19166020820180517bffffffffffffffffffffffffffffffffffffffffffffffffffffffff8381831617835250505050610089565b90508091505090565b6000604051905090565b600080fd5b600080fd5b6000819050919050565b610301816102ee565b811461030c57600080fd5b50565b60008135905061031e816102f8565b92915050565b600073ffffffffffffffffffffffffffffffffffffffff82169050919050565b600061034f82610324565b9050919050565b61035f81610344565b811461036a57600080fd5b50565b60008135905061037c81610356565b92915050565b600080fd5b600080fd5b6000601f19601f8301169050919050565b7f4e487b7100000000000000000000000000000000000000000000000000000000600052604160045260246000fd5b6103d58261038c565b810181811067ffffffffffffffff821117156103f4576103f361039d565b5b80604052505050565b60006104076102da565b905061041382826103cc565b919050565b600067ffffffffffffffff8211156104335761043261039d565b5b61043c8261038c565b9050602081019050919050565b82818337600083830152505050565b600061046b61046684610418565b6103fd565b90508281526020810184848401111561048757610486610387565b5b610492848285610449565b509392505050565b600082601f8301126104af576104ae610382565b5b81356104bf848260208601610458565b91505092915050565b6000806000606084860312156104e1576104e06102e4565b5b60006104ef8682870161030f565b93505060206105008682870161036d565b925050604084013567ffffffffffffffff811115610521576105206102e9565b5b61052d8682870161049a565b9150509250925092565b600081519050919050565b600082825260208201905092915050565b60005b83811015610571578082015181840152602081019050610556565b60008484015250505050565b600061058882610537565b6105928185610542565b93506105a2818560208601610553565b6105ab8161038c565b840191505092915050565b600060208201905081810360008301526105d0818461057d565b905092915050565b6105e1816102ee565b82525050565b6105f081610344565b82525050565b600060608201905061060b60008301866105d8565b61061860208301856105e7565b818103604083015261062a818461057d565b9050949350505050565b600081905092915050565b600061064a82610537565b6106548185610634565b9350610664818560208601610553565b80840191505092915050565b600061067c828461063f565b915081905092915050565b600082825260208201905092915050565b7f42726964676553444b3a2065787465726e616c2063616c6c206661696c656400600082015250565b60006106ce601f83610687565b91506106d982610698565b602082019050919050565b600060208201905081810360008301526106fd816106c1565b905091905056fea2646970667358221220600945d1c2ced93d7b5057b03c48f9f531170a45a015e65c61ee4b62d87d7c3964736f6c63430008130033",
  "immutableReferences": {},
  "source": "pragma solidity ^0.8.0;\n\nimport \"./BridgeSdk.sol\";\n\ncontract TestCross is  BridgeSDK{\n     constructor() {\n        \n    }\n\n    function myFunction() public returns (bytes memory datas) {\n        // Call bridgeCall function on BridgeSDK contract\n        bytes memory datas = bridgeCall(11155111, 0x5C3159dDD2fe0F9862bC7b7D60C1875fa8F81337, abi.encodeWithSignature(\"callme()\"));\n        return datas;\n    }\n}\n",
  "sourcePath": "/home/kali/Documents/bridgecore/contracts/Demo.sol",
  "compiler": {
    "name": "solc",
    "version": "0.8.19+commit.7dd6d404.Emscripten.clang"
  },
  "schemaVersion": "3.4.13",
  "updatedAt": "2023-04-29T16:03:28.270Z",
  "devdoc": {
    "kind": "dev",
    "methods": {},
    "version": 1
  },
  "userdoc": {
    "kind": "user",
    "methods": {},
    "version": 1
  }
}